:100000000C94DE040C94FB040C94FB040C94D2308E
:100010000C94FB040C94FB040C94FB040C94FB0464
:100020000C94FB040C94FB040C944A1A0C940E1AC6
:100030000C94B7280C94FB040C94FB040C94FB0464
:100040000C94FB040C94FB040C94FB040C94FB0434
:100050000C94FB040C94221B0C94FB040C94FB04E6
:100060000C94FB040C94FB040C94FB040C94FB0414
:100070000C94FB040C94FB040C94FB040C94FB0404
:100080000C94FB040C94FB040C94FB040C94FB04F4
:100090000C94FB040C94FB040C94FB040C94FB04E4
:1000A0000C94FB040C94FB040C94FB0461626364E9
:1000B00065666768696A6B6C6D6E6F707172737478
:1000C00075767778797A3132333435363738393056
:1000D000524542545F2D3D5B5D5C233B27602C2ED7
:1000E0002F14001A00080015001700000004001665
:1000F00000070009000A0000001D001B000600198F
:100100000005000000E000E300E20091222C419095
:1001100043130012000C0018001C0000002D000FFB
:10012000000E000D000B00000038003700360010F4
:100130000011000000E500E700E600912228422AB5
:10014000003A003B003C003D00300000003E001E35
:100150000223028902250200002E022F0224021F20
:10016000023002000087002E002002010001000181
:100170000043004200410040003F0000003300D235
:10018000004B00D100870200004400D3004E002144
:10019000022F0000004500E700E6000100005202C7
:1001A000522B002400250026002D000000340221DF
:1001B00000220023003302000038001E001F002030
:1001C000002D0200002900270037004C0028002ADB
:1001D000002A000100D3000100320000003400D2E8
:1001E000005200D1002602000001004F00510050D3
:1001F00000320200000100010001000100010001C5
:100200000020780A7E0B7E0C7E01000000217823FE
:100210007825782778087E000022782478267828A8
:1002200078097E0000007C007E01000100010001D1
:10023000000F7E0D7E0E7E01000100000001000116
:10024000000100010001000000017E047E027E0327
:100250007E057E0000007C007E010001000100019F
:100260000000DA0281FFD9F1DB20A4A62EAF00A0A6
:10027000C0D30000A1C8D30000AED580A81F408D18
:100280001420001E0F0500047F3F1F6432146432E7
:1002900014783C1E1E140A05000101010101010130
:1002A000010102020202020202020203030303032B
:1002B00003030304040404040404050505050506FA
:1002C00006060606070707070708080808090909B8
:1002D000090A0A0A0B0B0B0C0C0C0D0D0D0E0E0E61
:1002E0000F0F0F10101111111212131314141515F2
:1002F00016161717181819191A1A1B1B1C1D1D1E64
:100300001E1F2020212222232424252626272829B7
:10031000292A2B2C2D2D2E2F3031323233343536E5
:100320003738393A3B3C3D3E3F40414243444546E5
:100330004748494A4C4D4E4F5051535455565859C1
:100340005A5B5D5E5F616264656668696B6C6D6F68
:100350007072737577787A7B7D7E808283858788DB
:100360008A8C8E8F91939596989A9C9EA0A2A3A515
:10037000A7A9ABADAFB1B3B5B7BABCBEC0C2C4C616
:10038000C9CBCDCFD1D4D6D8DBDDDFE2E4E7E9EBD2
:10039000EEF0F3F5F8FAFDFFFFAA7F554022232582
:1003A0002628292A2C2D2F3032333536383A3B3D3A
:1003B0003E4042434547494A4C4E50515355575988
:1003C0005A5C5E6062646668696B6D6F71737577A5
:1003D000797B7D7F81838587898A8C8E90929496A4
:1003E000989A9C9E9FA1A3A5A7A8AAACAEAFB1B3B3
:1003F000B4B6B8B9BBBCBEBFC1C2C3C5C6C7C9CA03
:10040000CBCCCDCED0D1D2D2D3D4D5D6D7D7D8D9C4
:10041000D9DADADBDBDBDCDCDCDCDCDDDDDDDDDC22
:10042000DCDCDCDCDBDBDBDADAD9D9D8D7D7D6D534
:10043000D4D3D2D2D1D0CECDCCCBCAC9C7C6C5C3F6
:10044000C2C1BFBEBCBBB9B8B6B4B3B1AFAEACAA43
:10045000A8A7A5A3A19F9E9C9A98969492908E8CF3
:100460008A89878583817F7D7B79777573716F6DCD
:100470006B6968666462605E5C5A595755535150A7
:100480004E4C4A4947454342403E3D3B3A3836355B
:100490003332302F2D2C2A29282625232200AF0085
:1004A000AE202000BABB004B657920B10020C0C14E
:1004B00000BEBF00484F00565400303020002020BE
:1004C0002020B1BCBD0042616C6CB100B4B500B27B
:1004D000B300C2C3004CB6B772B1002020000501C2
:1004E0000902A10185020901A100050919012908D4
:1004F00015002501950875018102050109300931B2
:100500001581257F95027508810609381581257F9B
:10051000950175088106050C0A38021581257F951D
:100520000175088106C0C005010906A1010507196A
:10053000E029E715002501950875018102950175EF
:100540000881010507190029FF150026FF009506FF
:100550007508810005081901290515002501950573
:1005600075019102950175039101C009023B0002DA
:100570000100A0FA09040000010301010009211192
:10058000010001224400070581030800010904015C
:1005900000010300000009211101000122490007A8
:1005A00005820320000112010002000000085759D3
:1005B000000200010102000114034B0065007900F4
:1005C000620061006C006C00330039000000100311
:1005D00059006F0077006B00650065007300000034
:1005E0000403090400000000000000002F000000C8
:1005F000000700070000123F123F1200242A7F2A42
:10060000120036091E241B0018262912280000009B
:1006100007000000001E214000000040211E0000D5
:1006200014083E08140008083E0808000000307056
:100630000000080808080800000030300000201002
:100640000C0201001E2925231E0000223F2000006D
:10065000223129292600122125251A001814123FBB
:1006600010001725252518001E2525251800013105
:10067000090503001A2525251A00062929291E0027
:10068000000033330000000033730000081414220C
:10069000220014141414140022221414080002015D
:1006A000290502003E59555D3E00381611163800E6
:1006B0003F2525251A001E21212112003F2121213D
:1006C0001E003F25252521003F09090901001E21A3
:1006D00021291A003F0404043F0000213F210000AB
:1006E000102020201F003F040C1221003F2020205A
:1006F00020003F0204023F003F020C103F001E2179
:1007000021211E003F09090906001E2129112E0082
:100710003F090919260012252529120001013F0170
:1007200001001F2020201F000718201807000F308D
:100730000C300F0021120C122100030438040300B6
:10074000312925232100007F4141000001020C10C6
:1007500020000041417F00000402010204004040EB
:1007600040404000000103040000102A2A2A3C00F7
:100770003F2422221C001C22222224001C2222248C
:100780003F001C2A2A2A0C0000043E0505000C52DA
:1007900052543E003F080404380000003D000000B1
:1007A0002040403D00003F080814220000013F2087
:1007B00000003E023C023C003E0402023C001C22BF
:1007C00022221C007E1422221C001C2222147E00E5
:1007D0003E0402020400242A2A2A120000021F22D8
:1007E00000001E2020103E000618201806000E30C3
:1007F0000C300E002214081422000E5050483E0007
:1008000022322A26220008087741410000007F009A
:100810000000414177080800180408100C0000008F
:1008200000000000000000000000000000000000C8
:10083000C0F0F88C86C6E7FFFFFFFFFFFFFEFCFC61
:10084000F8E080000000F0F0F00000C0E0F0707010
:100850000000000000000000000000000000000098
:10086000000000000000F8F8F800000000000000A0
:10087000000000000000000000000000F8F8F80090
:1008800000F8F8F8000000000080E07078686C6400
:10089000C7C7C7C7C7C7E73F1F0F3FFFFFFFFFFF20
:1008A000FF3F0F000000FFFFFF1E3FFFF3E180004E
:1008B00000F8FCFE3636363EBCB8000E3EFEF08038
:1008C000F0FE3E0E0000FFFFFF060606FEFEFC7077
:1008D00000E6F6F63636FEFEFC000000FFFFFF00E5
:1008E00000FFFFFF000000003C7F6360E0C0C0C06D
:1008F000C0C0C0C0C0FFFFC06030180F03030301B9
:1009000000000000000003030300000003030303D2
:1009100000010303030303030301007070393F1F49
:1009200007010000000001030303030303030100A8
:10093000000103030303030301000000030303009A
:100940000003030300101010000000005500000019
:100950003E635D5D637F417B77413E00001C222248
:100960001C003E0A003E0A00322A3C0026281E00D7
:100970001C2A2C0000003F09360000001E21210027
:10098000000000003F0837001E2121001E21210029
:100990003F090600213F2100222519001E212100C8
:1009A0003F0936003F211E00213F21000F300F007C
:1009B0003E093E003F063F003F20200011241FBE9D
:1009C000CFEFDAE0DEBFCDBF12E0A0E0B1E0E0EFB4
:1009D000F7E602C005900D92A830B107D9F727E0DD
:1009E000A8E0B2E001C01D92A132B207E1F70E9477
:1009F000E0280C94F6330C94000080919A01811148
:100A00001BC088E190919B019923C1F090919C01BA
:100A1000911116C098E120911305211113C0292FBF
:100A20002093950180939601890F109297018093EE
:100A3000980180939901089586E1E4CF90E0EBCF8F
:100A400096E1E9CF20E0ECCF482F2091110590915D
:100A5000D80457E0291302C080E0089530E0529F87
:100A6000F001539FF00D1124E752FB4F8181681371
:100A700006C08081481303C085818111EECF2F5FAE
:100A80003F4F2770E7CFE8EDF0E080818E7F8083D5
:100A90001092E2001092DA001092E100A0EEB0E0B5
:100AA0008C9181608C9380818F77808319BCA7EDB6
:100AB000B0E08C918E7F8C9380818F7E80831092AA
:100AC000C00408952091E4003091E50085E69091FE
:100AD000EC0090FF06C09091E80090FF06C080E017
:100AE00008959091E80092FDFACF9091CE04992359
:100AF00091F0953091F09091EB0095FD10C04091F0
:100B0000E4005091E5002417350709F381509A015C
:100B1000F1F684E0089582E0089583E0089581E08D
:100B200008958091D00487FF13C08091E80082FF70
:100B300006C08091E8008B778093E80004C0809124
:100B4000CE048111F2CF08958091CE048823D9F389
:100B50008091E80080FFF8CF8091E8008E77ECCF9D
:100B6000982F9093E900242F762F50E0891731F0C9
:100B70007091EC002091ED005091F00021FD07C034
:100B80009F5F973071F78093E90081E0089530917D
:100B9000EB003E7F3093EB003091ED003D7F3093D2
:100BA000ED003091EB0031603093EB007093EC007E
:100BB0002093ED005093F0002091EE0027FDE0CF50
:100BC00080E00895B0E0A0E0E8EEF5E00C940D328E
:100BD000C8EDD0E088818F7E8883E7EDF0E08081EA
:100BE0008160808384E082BF81E08093C00488813B
:100BF0008E7F888302EE10E0F80110821092DA00F6
:100C000081EEC82ED12CF601108288818F778883DF
:100C100088818068888388818F7D888319BC109241
:100C2000CE041092CF041092CD041092CC0490EE1A
:100C3000E92EF12CF70180818B7F80838881816090
:100C4000888342E060E080E00E94B005F601808188
:100C50008E7F8083F80180818160808380818860BD
:100C60008083F70180818E7F808388818061888383
:100C7000CDB7DEB7E8E00C942932FC018091D604B0
:100C80009091D70486179707A0F06115710529F494
:100C90009091E8009E779093E80090E061157105CF
:100CA00051F4911108C08091E80082FF35C080E0C6
:100CB0000895BC01F2CF8091CE048823C9F185301C
:100CC000C9F18091E80083FD31C08091E80082FD88
:100CD000EACF8091E80080FFE1CF2091F30080917E
:100CE000F200322F282F6115710519F028303105D7
:100CF00058F091E02830310509F090E02091E800AB
:100D00002E772093E800CACF81918093F100615043
:100D100071092F5F3F4FE7CF8091CE04882341F0C8
:100D2000853041F08091E80083FFBDCF81E00895D8
:100D300082E0089583E008950895089508958091CC
:100D4000C30408952FB7F8946091BC047091BD045A
:100D50008091BE049091BF042FBF08958091120529
:100D6000882359F0E091B904F091BA04309729F042
:100D70000190F081E02D0995089580E00895FC012F
:100D8000680F791F8FEF91E32191822728E030E0EF
:100D900087FF09C0880F892721503109C9F7E61755
:100DA000F70791F70895880FF7CF539A0895FA013E
:100DB000811101C0FB0109950895E0E0F3E0118283
:100DC0008281846082830895609196018091860477
:100DD00080FF0CC070E08091950123E0829FC001EC
:100DE00011248A5F9C4F0E9494130895809197016B
:100DF0009091980123E0829FF0011124EA5FFC4F5B
:100E0000891740F71182108212828F5F3396F8CFD4
:100E10009091860490FF0EC09091970120919801C7
:100E200033E0939FF0011124EA5FFC4F921718F012
:100E30000E94E40608958183608342839F5F339616
:100E4000F5CF80918604982F9C7F61F48370846035
:100E50008093860480918904873918F086E980930D
:100E6000890408958C3AB0F38370886AF1CFB0E0BA
:100E7000A0E0EDE3F7E00C940B32C82FD62F4739F2
:100E800008F046E9E42FF0E0E856FD4FD1110FC01D
:100E9000E4919E2F8E2FD90111968C931197EC938C
:100EA00012969C93CDB7DEB7EAE00C942732ED2E74
:100EB000F12CE491FE2FCE2ED12C46E0C49FC00130
:100EC00011240FEF10E0B8010E94EF318C2F90E059
:100ED000880F991FA5E5A69FA001A79F500D11247B
:100EE000841B950BC82FCC0FC80FC8018E199F0902
:100EF0008C9DA0018D9D500D9C9D500D1124952F12
:100F0000DC9FD0011124AB2FBB275801AA1ABB0AC2
:100F1000AC9CD001AD9CB00DBC9CB00D11248B2FAE
:100F20005801AC1AB108AE9CE001AF9CD00DBE9C3C
:100F3000D00D1124CD2FDD270C1B1D0B0C9DE001C6
:100F40000D9DD00D1C9DD00D112462307105B1F0A6
:100F500058F46115710579F06130710509F49BCF82
:100F60008E2FE52F9B2F97CF6430710571F048F0DD
:100F700066307105A9F78E2FED2F8DCF852F9D2F10
:100F80008ACFEB2F852F9F2F86CF8D2FE52FFBCF7D
:100F90000F931F93CF93DF93EC0110E000E090914B
:100FA00099019017110609F06CF40E94E4068C81F7
:100FB00090E00196817099278C83DF91CF911F91EA
:100FC0000F91089520919701A801420F511D9A0198
:100FD000220F331F240F351F2A5F3C4F4C81609135
:100FE00088048091870496959017110651F04CF073
:100FF000442349F0409189040E9437070F5F1F4F37
:10100000CECF4423B9F340E0F7CFA3E0B0E0EBE06C
:10101000F8E00C9411328C018091050381110AC013
:101020009E012F5F3F4F46E96FEF0E9437078A818D
:1010300080930503F8018481813069F038F0409194
:101040000503823009F040E080E003C08091050391
:1010500040E060E004C06091050340E080E00E9451
:101060000807F801848190E0019663E070E00E9437
:10107000743384832396E4E00C942D32B0E0A0E036
:10108000E4E4F8E00C940932EC014C81042F10E008
:101090009801D8010E944B339B01AC010E9416338A
:1010A0004B015C01E0E2F0E0E01BF10BA5E5B0E0F4
:1010B000AC019B010E9416336B017C019F01DF0193
:1010C0000E948E339B01AC010E9421339B01AC0135
:1010D000280D391D4A1D5B1DC701B6010E94293329
:1010E000022F30E00A3258F5C901880F991F880F86
:1010F000991F281B390B37FF02C02F5F3F4F3595D3
:1011000027951FEF120FF12C85E5E82EE01A80914C
:101110009901F81630F10E94E4069C8181E0992340
:1011200019F0903219F48FEF80937C0180917C014B
:10113000890F8C83CDB7DEB7ECE00C94253285E5C2
:1011400090E0821B930B9C01220F331F220F331F51
:10115000821B930B97FD0196959587951FEF180FAE
:10116000D2CF8E2DF1FC802F20919701622F6F0D31
:101170007727771F9B01220F331F260F371F2A5F08
:101180003C4F412F609188040E943707F394BFCFF2
:10119000EF92FF920F931F93CF93DF93EC018C811B
:1011A000811109C081E08C831092040392E0909336
:1011B0007B0180937A01809197019091980123E0BF
:1011C000829FF0011124EA5FFC4F891758F110E06B
:1011D00003E060919901161758F10E94E40680918E
:1011E0007A0120910403280F2093040390917B013E
:1011F000980F90937B01191654F4022E000C330BB8
:10120000409199014150550B2417350734F08195D1
:1012100080937A01813009F41C82CDB7DEB7E6E015
:101220000C942B321182108212828F5F3396CDCFB5
:10123000E12EF12C70E0C7010E94743320919701D8
:10124000820F482F50E020910403022E000C330B34
:10125000E216F306BCF020917B01022E000C330B4A
:101260002E153F057CF0809F900111242A5F3C4F92
:101270004091890460918804809187040E94370717
:101280001F5FA7CFFA01EE0FFF1FE40FF51FEA5F04
:10129000FC4F118210821282F3CFB0E0A0E0E3E5B0
:1012A000F9E00C940932EC018A81BB24B39480FFED
:1012B00002C0BB24BA94A09099018C81811109C00D
:1012C00081E0B81220C08FEF8A0D8093030381E084
:1012D0008C83F12CE12C40E3942EEA14B8F00E94A8
:1012E000E4068091030391E0B91257C0811150C008
:1012F000809199018150809303031C82CDB7DEB7A2
:10130000ECE00C94253210920303E1CF0091970199
:101310000E0D1F2D111DC801880F991F080F191FD1
:101320000A5F1C4FF80111821082128234E0C32E32
:10133000D12C812C80910303880D81332CF1692DF0
:101340000E946633892F082E000C990BE816F906C7
:1013500091F4809189048C9DA0018D9D500D1124E4
:1013600055954795559547959801609188048091CA
:1013700087040E9437078B0CF1E0CF1AD108D1F611
:101380008FEFE81AF80AA9CF87FFDDCF8A0DDBCFF0
:10139000815080930303BC82B1CF90E001966091AD
:1013A000990170E00E947433809303038C83A6CF6D
:1013B000EF92FF921F93CF93DF93EC0110E0EE24A6
:1013C000EA94F12C60919901161770F00E94E406DE
:1013D0009A818C8190FF27C08F5F8C83DF91CF91A2
:1013E0001F91FF90EF90089520919701422F410F98
:1013F0005527551FCA019A01220F331F280F391F85
:101400002A5F3C4F70E0C7010E947433962F8C8195
:101410004091890460918804199F800D11240E94D5
:1014200037071F5FCFCF8150D8CFA3E0B0E0EBE10B
:10143000FAE00C9413329091860490FF0AC09E014A
:101440002F5F3F4F0E9437074B8169818A810E943D
:1014500008072396E2E00C942F32CF93DF93EC0140
:10146000E6E8F4E0438162818C810E94150A8C8158
:101470008F5F8C83DF91CF910895CF93DF93EC0141
:10148000EC81F0E0E356FC4F4491E6E8F4E0628141
:1014900081810E94150A8C818F5F8C83DF91CF91AF
:1014A000089590918801882341F09F5F909388016F
:1014B000109285011092840108959150F7CFEDE7C5
:1014C000F1E0828591E0892782871086178208954E
:1014D00080918601811114C080918801811110C012
:1014E0008091870181110CC09091F9029695969593
:1014F000969581E020917E01921380E0817008959D
:1015000081E0FCCF80919A01F90180830E94FD0463
:101510000895CF93DF93EAE9F1E083819481A58177
:10152000B681E90188839983AA83BB8314821382DD
:1015300016821582DF91CF91089580E0089563E0CF
:1015400070E082E692E00E94BF06909161028913EA
:1015500018C0E0916202EC30A4F488E0E802F001E7
:101560001124EB5FFE4F0680F781E02D309749F0A4
:1015700025E832E04091640265E672E08091630202
:1015800009950895ECE4F2E0878980933501808D18
:10159000809348010895F894E82FE295EF70F0E009
:1015A00031A1282F2F7081E090E001C0880F2A958B
:1015B000EAF7982F9095932391A392A1892B82A368
:1015C000789408950F931F9380911205882329F032
:1015D0000E94A2061F910F9108950E94A2060091F9
:1015E000BA021091BB022091BC023091BD02600F83
:1015F000711F821F931FEECF7830B8F46630A8F4C5
:101600008430B0F4E62FF0E096E0799FE00DF11D14
:10161000112490E3899FE00DF11D1124EE0FFF1FAF
:10162000EF51FF4F85919491089580E090E00895E7
:1016300081E0FCCF811522E5920780F5811530E528
:10164000930708F0A3C0883E9105A0F4803E910561
:1016500058F4853A910548F48430910528F4813096
:10166000910511F090E080E008958D3C9105D0F354
:1016700090650895811540E4940708F043C08115F2
:1016800050E2950708F09BC0811521E0920750F3C6
:1016900020E0392FA901482BCA010895803832E58E
:1016A0009307A0F4803642E5940708F056C08034D2
:1016B00052E59507F0F5803222E5920730F18F71FF
:1016C00090E0982F8827816F906A0895803C32E5DA
:1016D000930760F4282F2F71803A924508F44FC089
:1016E000822F90E0982F882790620895803E52E5DF
:1016F000950708F0B7CF982F882788279F71806FAC
:10170000906A08959F70906A0895282F26952695CF
:1017100050E2259F90011124482F437081E090E012
:1017200002C0880F991F4A95E2F7822B932B9D6880
:101730000895982F937021E030E002C0220F331FEC
:101740009A95E2F73C6886958695877040E2849F7B
:10175000C0011124822B932B0895982F937021E0C0
:1017600030E002C0220F331F9A95E2F73A6886955F
:101770008695877050E2859FC0011124EBCF822FA0
:1017800090E0982F8827846F906A08959C0195E0D7
:10179000369527959A95E1F72F7030E0322F222762
:1017A000482F4F7150E084FF05C084E0440F551F5F
:1017B0008A95E1F7C9019069842B952B0895292F0B
:1017C0002F7199279062922B0895982F9095809170
:1017D000C10489238093C1040895809111059091DB
:1017E000D804981301C008958F5F8770FACFCF9205
:1017F000DF92FF920F931F93CF93DF936C010091C1
:101800008E048091C802082BC7E0D0E010E0FC2EC7
:10181000C8010C2E02C0959587950A94E2F780FDC9
:101820000CC02197A0F7F12C8F2DDF91CF911F9144
:101830000F91FF90DF90CF900895B6018C2F0E94FA
:10184000FC0A0E941A0B019761F3EECFCF93DF934E
:10185000EC010E94F70BBE010E94FC0A0E941A0BC9
:10186000DF91CF910895292F983078F5863068F56B
:1018700090E036E0239F800D911D1124682F677042
:1018800023E0969587952A95E1F7FC01EE0FFF1F5F
:10189000E80FF91FE35EFD4F50E040E080E021914A
:1018A00030E0062E02C0369527950A94E2F72170A3
:1018B0003327042E01C0220F0A94EAF7822B4F5FD0
:1018C0005F4F4330510559F7089580E00895292F5F
:1018D000983098F5863088F590E036E0239F800DAB
:1018E000911D1124282F277041E001C0440F2A9533
:1018F000EAF723E0969587952A95E1F7FC01EE0F2C
:10190000FF1FE80FF91FE35EFD4F30E020E070E0BD
:101910005191DF011197CB01022E02C09695879558
:101920000A94E2F7817081958527842385278C931B
:101930002F5F3F4F2330310559F708958093C80238
:101940000895FC0124812223B9F0808191810E94B5
:10195000260C92959F70963089F050F492509230F8
:1019600058F4803F19F030F4883E30F481E0089557
:101970009A50F5CF843FD1F380E00895883EB0F3CC
:10198000813FD1F7F3CF982F92959F7020E011F00F
:10199000892F24E0982F9695969511F02E5F892F28
:1019A000982F969509F02F5F822F0895A6E0B0E05A
:1019B000ECEDFCE00C94123249835A8349815A8140
:1019C0009923A1F0222391F0CA010E94F70B182F4E
:1019D000682F89819A810E94670C69817A81812FA1
:1019E0000E94FC0A2696E3E00C942E32CA010E9463
:1019F000330C182FF2CFCF93C82F8091A7018C17EB
:101A000051F00E94A2066093A8017093A9018093EF
:101A1000AA019093AB01C093A701CF910895CF93F2
:101A2000C82F0E94C30C91E0833009F090E0892F09
:101A30000E94FB0CC0938E04CF91089521E030E00A
:101A400001C0220F8A95EAF7209580918E048223A7
:101A50000E940F0D08959091F9028095892380933B
:101A6000F902282F277069F4891759F09091CA025A
:101A700092FF07C08695869586950E941E0D10924E
:101A8000F902089521E030E001C0220F8A95EAF7BB
:101A900080918E04822B0E940F0D0895B0E0A0E08B
:101AA000E4E5FDE00C940D328C01EB01E091AC011A
:101AB000E11101C0E4E0E150FF0B81E090E06C0136
:101AC0000E2E02C0CC0CDD1C0A94E2F7D801ED907A
:101AD000FC90C701B6010E9474339B01CB010E2E0E
:101AE00002C0880F991F0A94E2F7E81AF90AD80190
:101AF0001196FC92EE921296ED90FC90C701B60101
:101B00000E947433CB0102C0880F991FEA95E2F757
:101B1000E81AF90AF801F382E2826138FFEF7F07E1
:101B2000F4F060387105ECF46D8321388FEF3807DD
:101B3000D4F020383105CCF4822F81958C83442356
:101B400019F061956D832C838091AD01882379F024
:101B5000813079F0CDB7DEB7E8E00C94293261E846
:101B6000E3CF6FE7E1CF21E8E7CF2FE7E5CF1D8295
:101B7000F1CF1C82EFCFFC01DB012281338191E8A0
:101B800021388FEF38072CF0922F203831050CF0D8
:101B90009FE712969C9312972081318121388FEF15
:101BA0003807A4F0203831059CF413962C93139732
:101BB000442339F0919512969C9312972195139690
:101BC0002C931182108213821282089521E8EDCFA6
:101BD0002FE7EBCF8F708A3010F4805D0895895A1B
:101BE0000895382F20E287FF02C031952DE24AE0A8
:101BF000832F642F0E946633905D909315028111AC
:101C00000BC02093140220E22093130220E22093C1
:101C1000120282E192E00895642F0E946633905D83
:101C200090931402832F64E60E946633882361F345
:101C3000805D80931302EBCF9C01860F971F37FDC9
:101C400007C077FD04C097FF02C08FEF9FE708959C
:101C500077FFFDCF97FDFBCF80E090E80895E6E8A1
:101C6000F1E083E0DF011D928A95E9F7E2E8F1E017
:101C700084E0DF011D928A95E9F7089520917F01A4
:101C8000309180012817390731F0909380018093BB
:101C90007F010E942F0E089590917D01981721F0E9
:101CA00080937D010E942F0E0895CF939091F402AE
:101CB0008091ED02981323C08091F502882321F0D2
:101CC0009091EE0289131BC08091F602882321F0C7
:101CD0009091EF02891313C08091F802882321F0BC
:101CE0009091F10289130BC09091F702992329F08A
:101CF00081E02091F002291303C080E001C081E05F
:101D0000C82FC17080FF0FC0E091B904F091BA04F0
:101D1000309749F082E08093F3020680F781E02D4E
:101D200083EF92E009959091F40286E0E3EFF2E010
:101D3000DF01282F1D922A95E9F79093F402ACEE6B
:101D4000B2E001900D928A95E1F781E0C11103C0E4
:101D5000911101C080E08170CF9108952FE2280F8A
:101D6000283078F481E090E001C0880F2A95EAF7E6
:101D70002091F402662331F0822B8093F4020E94BA
:101D8000550E089580958223F8CFCF93DF93282FA7
:101D900081E02A3019F02D3031F480E00E945A0F92
:101DA000DF91CF91089580911D0790911E0736E035
:101DB000FC01A7E1B7E001900D923A95E1F730EE12
:101DC000320F343A08F459C026E0FC0111922A95EA
:101DD000E9F7C0911D07D0911E0746E050E0BE0113
:101DE00087E197E00E94E033892B59F1CE018751BA
:101DF00095409C0145E0369527954A95E1F741E0ED
:101E000050E0BA0102C0660F771F2A95E2F79B01E6
:101E10006091150570911605262B372B059665E008
:101E2000969587956A95E1F7FA0102C0EE0FFF1FBC
:101E30008A95E2F7CF01822B932B9093160580931E
:101E400015059E012151354040911405642F70E025
:101E5000C9010E94EF31481B463010F4240F311D98
:101E60002115F2E03F0710F030E020E0295E3A4F04
:101E700030931E0720931D0793CF2052330B46E06B
:101E8000429FB001439F700D11246C517A4F46E080
:101E900050E00E9496329DCFCF93DF93EC01FE017C
:101EA0008491811103C0DF91CF9108950E94C50EE6
:101EB0002196F5CFCF93382FE0911D07F0911E07A3
:101EC000E751F54020911405622F70E0CF010E9488
:101ED000EF31281B822F332361F066E00E945A33D2
:101EE000C82FC15010F4CF91089580E20E94C50E12
:101EF000F8CF9F01280F311D2115324018F080E0E6
:101F0000F0E0E0E08E0F9F2F911D895E9A4F909335
:101F10001E0780931D07E7CF8091C104909137027F
:101F2000892B90913602992351F0892BECE0F2E055
:101F300027E090E0215029F591111092360280930C
:101F40000A0248E050E068E372E08AE092E00E9412
:101F5000E033892BA9F088E0EAE0F2E0A8E3B2E000
:101F600001900D928A95E1F7E091B904F091BA04DD
:101F7000309731F00280F381E02D8AE092E00995FC
:101F8000089531913323B1F29F5FD4CFECE0F2E0BA
:101F900086E0DF011D928A95E9F7109237020E94D0
:101FA0008C0F0895AAE2B0E0E8EDFFE00C94123245
:101FB000E0EDF4E08091F100819324E0E83DF20748
:101FC000C9F78091D104833009F47DC008F58130D0
:101FD00009F454C0823009F4C0C08091E80083FF46
:101FE000FAC08091D0049091D1049A3008F0F3C0E7
:101FF000E92FF0E0E250F04F0C948833BE10E4106B
:10200000EB10E410EB103C115E11EB105C12691246
:102010008A3009F491C08B3009F472C08930E9F636
:102020008091D0048132C9F68091D4049091D50476
:10203000029798F68091E800877F8093E80080916E
:10204000E80082FF3BC08091F3009091F200892765
:1020500098278927029731F48091F100813011F09F
:10206000863021F48091F1008093C3048091E800D0
:102070008B778093E8000E949105AFCF8091D004C8
:10208000813A09F0AACF8091E800877F8093E80029
:102090008091D4049091D504892B61F060E090E0A8
:1020A00080E070E00E943D068091E8008B7780938D
:1020B000E80093CF68E084EC94E0F3CF8091CE0405
:1020C0008111BDCF8ACF8091D004813A09F085CFAC
:1020D0008091D4049091D504892B09F07ECF809112
:1020E000E800877F8093E8008091E80080FFFCCFC4
:1020F000809194018093F1008091E8008E77B9CFB0
:102100008091D004813209F068CF8091D4049091FD
:10211000D504892B09F061CF8091E800877F8093F7
:10212000E8000E9491058091D2048093940110925E
:10213000C1040E94C60F51CF8091D004813209F0B2
:102140004CCF8091E800877F8093E8000E94910542
:102150008091D3048093C20440CF8091D004813A0F
:1021600009F03BCF8091E800877F8093E800809161
:10217000E80080FFFCCF8091C204BCCF803889F09A
:10218000823849F58091D4048F70873020F5809390
:10219000E9008091EB0085FB882780F91092E90027
:1021A00006C08091CC049091CD04911182609091F1
:1021B000E800977F9093E8008093F1001092F1007F
:1021C0008091E8008E7727C0282F2D7F21F4882367
:1021D000A1F0823029F18091E80083FF0AC080914C
:1021E000E800877F8093E8008091EB008062809315
:1021F000EB00AA96E3E00C942E328091D204813059
:1022000051F7933009F080E08093CD041092E900FB
:102210008091E800877F8093E8000E949105DBCFE2
:102220008091D2048111F2CF8091D4048F702FEF6E
:10223000280F263080F68093E9002091EB0020FFE4
:10224000E5CF933031F48091EB0080628093EB0016
:10225000DDCF9091EB0090619093EB0021E030E0B6
:1022600001C0220F8A95EAF72093EA001092EA0053
:102270008091EB008860EACF8111ADCF1091D2043C
:102280001F778091E3008078812B8093E300809119
:10229000E800877F8093E8000E9491058091E80024
:1022A00080FFFCCF8091E30080688093E30083E0AF
:1022B000111101C082E08093CE048DCF805882300E
:1022C00008F089CF8091D2049091D3048C3D23E013
:1022D0009207A1F583E08A838AE289834FB7F89455
:1022E000DE01139620E03EE051E2E32FF0E0509350
:1022F0005700E49120FF03C0E295EF703F5FEF705D
:102300008E2F90E0EA30C0F0C7968D939D932F5F9B
:10231000243159F74FBF8091E800877F8093E80010
:102320006AE270E0CE0101960E943D068091E800CD
:102330008B778093E8004FCFC096E7CF4091D404CD
:102340005091D504292F33272330310509F443C098
:1023500078F52130310509F46DC08BE390E0EBE6B0
:10236000F5E02230310509F036CF2091E800277FD3
:102370002093E8002091D6043091D7048217930768
:1023800008F49C0140E02115310509F062C04111BB
:1023900060C08091E80082FDC9CF8091CE0488237F
:1023A00029F2853019F28091E80083FFF2CFBECF89
:1023B0002132310599F12232310509F00CCF411556
:1023C000510509F441C089E490E0EEEDF4E04130BC
:1023D000510559F200CF992781309105B9F058F095
:1023E000029709F0F8CEE8EBF5E0E4918E2F90E04B
:1023F000E8EBF5E007C0E0EEF5E0E4918E2F90E029
:10240000E0EEF5E0009709F4E6CEAFCFEEECF5E0B4
:10241000E4918E2F90E0EEECF5E0F4CF41155105FC
:1024200071F089E090E0E6E9F5E04130510509F40A
:102430009CCFD1CE82E190E0E6EAF5E096CF89E04C
:1024400090E0EDE7F5E091CF84E490E0E7E2F5E09D
:102450008CCF8091CE04882309F468CF853009F4AD
:1024600065CF8091E80083FD61CF8091E80082FD17
:1024700090CF8091E80080FF86CF8091F30090910B
:10248000F2008927982789272115310519F088300E
:10249000910550F041E0089709F040E08091E80094
:1024A0008E778093E8006FCF44914093F10031968E
:1024B000215031090196E8CF803809F08CCE809107
:1024C000E800877F8093E8008091CF048093F1003B
:1024D00077CE811180CE1091D204123008F07BCEDD
:1024E0008091E800877F8093E8001093CF040E94DA
:1024F0009105112381F084E08093CE0442E061ECE9
:1025000081E00E94B00542E261EC82E00E94B005E9
:102510008091CE0460CE8091E30087FDECCF81E016
:10252000EBCF882321F00E94E50B0E948C0F0895C9
:10253000882339F09091C104892B8093C1040E94B3
:102540008C0F0895882339F19CEF980F913A70F41D
:10255000EAE0F2E09281891301C01282319692E0A2
:10256000E031F907B9F70E948C0F089590E2980FB7
:10257000983050F4877091E001C0990F8A95EAF77E
:10258000892F0E94E50BEFCF93E3980F933118F456
:1025900060E00E94AE0E08950F931F93CF9388239F
:1025A00059F1C82F8CEF8C0F813AB0F50CE012E096
:1025B000EAE0F2E082E192E0D8012D91C21701F148
:1025C0008A179B07D1F7EFEF80E0D8019D918D012D
:1025D000C91781F0EF3F19F4911101C0E82F8F5F07
:1025E000863099F7EF3F31F00E2E000CFF0BE65FBF
:1025F000FD4FC2830E948C0FCF911F910F910895C0
:102600008281C81301C01282319682E0E031F8075E
:10261000B9F70E948C0FD7CF80E28C0F883068F416
:10262000C77021E030E001C0220FCA95EAF780911F
:10263000C104822B8093C104DDCF83E38C0F8331EF
:10264000D8F661E08C2F0E94AE0ED6CF0F931F9369
:10265000CF93DF93EC01FC0101900020E9F78F019B
:1026600001501109C017D10728F0DF91CF911F91B8
:102670000F91089589910E94C50EF4CF0F931F9377
:10268000CF93DF938B01EA019091CE04943061F5F2
:102690008093E9008FEF9091E800815095FD06C08E
:1026A00095ED9A95F1F700008111F5CF8091E80042
:1026B00085FF1AC00E946205811111C08091E80057
:1026C00085FD06C08091E8008E778093E800F2CF08
:1026D000F80181918F018093F100219779F7809122
:1026E000E8008E778093E800DF91CF911F910F91E2
:1026F000089546E050E0BC0182E00E943E13089538
:10270000CF93DF93EC0148E050E0BC0181E00E94F0
:102710003E1388E0FE01A4ECB4E001900D928A958E
:10272000E1F7DF91CF9108952BB1277F3BB138605E
:102730004FB7F894FC01CB01880F991F680F791FE0
:102740006E0F7F1FE617F70741F44FBF8FE594E048
:102750000197F1F700C000000895819198E03BB91E
:10276000000000C087FF2BB9880F000000C000C028
:1027700000C02BB900C09A9591F7E4CFB0E0A0E07B
:10278000E4ECF3E10C940B327C015B016A01809173
:10279000B90201E010E08A3010F40AE010E0C1E074
:1027A000D0E0B501C701F6010995811104C0219659
:1027B0000C171D072CF4CDB7DEB7EAE00C942732D6
:1027C000CC9F9001CD9F300D300D112490E080E022
:1027D00045E34A95F1F70000019682179307C1F788
:1027E000E0CF1092C1040E94C60F2FEF84E39CE05B
:1027F000215080409040E1F700C0000088E19AE05D
:102800000FB6F894A895809360000FBE9093600077
:10281000FFCFAB0124E630E0BC0188E70E94A22F85
:1028200021E0892B09F020E0822F08958091B504E2
:102830009091B804911103C091E0892708958823ED
:1028400069F062E070E08FE994E00E940914811160
:1028500003C08091B50408951092B5048091B50429
:10286000EBCFCF93C091B5048091B8048823D1F009
:102870000E94A206605A75418F4F9F4F6093B1042A
:102880007093B2048093B3049093B404C11108C050
:1028900062E070E08DE994E00E940914811105C0A6
:1028A000C091B5048C2FCF91089581E08093B50439
:1028B000F7CFB0E0A0E0EFE5F4E10C940532FC01C5
:1028C0006280448081E08483EDE9F3E07490ECE180
:1028D000F4E0E491C0918904C695C158D0E0CC0FD2
:1028E000DD1FCD2FDD27812C75E0972EAA24AA9419
:1028F000B12C55245A94E719EE2EF12C80919901B0
:10290000881638F00E94E406CDB7DEB7E0E10C94FB
:102910002132C82CD12C82E0861568F09C9CF001F5
:102920009D9CF00D1124EA56FC4F80918704808312
:10293000809188048183411023C09C9CF0019D9C60
:10294000F00D1124EA56FC4F138212822091970158
:10295000C601820F911D9C01220F331F280F391FC2
:102960002A5F3C4F9C9CF0019D9CF00D1124EA567F
:10297000FC4F4281618180810E9437078394BECFE2
:102980009C9C80019D9C100D11240A561C4FF8013F
:1029900083818823F1F081508383859DC0011124B8
:1029A000648170E00E94EF31FB01FF27E356FC4F8A
:1029B0008491E82FE719E59DC0011124B7010E9419
:1029C000EF3180918904689FB0011124F80172836E
:1029D000BDCF0E948632B5010E9474338C179D07CB
:1029E0000CF0B4CFF2E0F61598F40E948632B501EF
:1029F0000E947433F80180830E94863220918804FB
:102A00002695622F70E00E947433280FF80121830D
:102A10009C9CF0019D9CF00D1124EA56FC4F128203
:102A200080918904893C58F088EC9C9CF0019D9C25
:102A3000F00D1124EA56FC4F8483838387CF8431C1
:102A4000A0F784E1F2CFB0E0A0E0E9E2F5E10C9478
:102A5000093249015A016B017C010E94210784015E
:102A6000A4016A2D7B2D88E090E00E94D53294016C
:102A70004A2D5B2DB601C70100E20E94B833622FD8
:102A800083E290E00E94C332CDB7DEB7ECE00C9455
:102A90002532A3E0B0E0EFE4F5E10C940C32082F0E
:102AA000E62EF42EC22E9091860490FF41C0209114
:102AB0008704281308C080918804861304C080917D
:102AC0008904841729F080910203826080930203B5
:102AD000E92FE695E695AE2FB0E0AC52BE4F8C9153
:102AE000809300039C7F943039F59E012F5F3F4F08
:102AF0004F2D6E2D802F0E9437074B8169818A816F
:102B00000E94080700938704E0928804F0928904E9
:102B1000CC2071F02091860460918A0470918B041E
:102B2000302FA70180918C0490918D040E94231571
:102B30002396E9E00C942832823019F4F09089044D
:102B4000E1CF8630A1F1893091F18931D9F6E9518F
:102B50006E2F6170B62EE695F0E0E856FC4F1491AA
:102B6000D12C60919901D61618F00E94E406CACFC4
:102B7000D19EC001112470E00E94EF31802FB1106E
:102B800014C0860F20919701622F6D0D7727771F54
:102B90009B01220F331F260F371F2A5F3C4F4F2DFB
:102BA0006E2D0E943707D394DCCF861BEBCF022F0C
:102BB000A9CFE6E8F4E043812FE0421B08F440E0AF
:102BC00021E0628181810E9449150895E6E8F4E0E0
:102BD00043812FE0420F08F44FEF21E062818181B1
:102BE0000E9449150895E6E8F4E0628121E1621B44
:102BF00008F460E021E0438181810E944915089535
:102C0000E6E8F4E0628121E1620F08F46FEF21E071
:102C1000438181810E9449150895E6E8F4E08181AD
:102C200021E04381628181510E9449150895E6E8BF
:102C3000F4E0818121E0438162818F5E0E94491529
:102C4000089580918A04882319F0815080938A0422
:102C50002091860430918704409188045091890422
:102C600060918A0470918B0480918C0490918D0402
:102C70000E942315089580918A04833018F48F5F91
:102C800080938A04209186043091870440918804BF
:102C90005091890460918A0470918B0480918C0416
:102CA00090918D040E94231508959091CA0292FB81
:102CB000222720F9281779F080FB92F99093CA0215
:102CC0006091C9027091CA0284E090E00E94E132F2
:102CD00082E00E942B0D0895B0E0A0E0E2E7F6E16B
:102CE0000C940E327901C82F880FDD0B4115510568
:102CF000A9F0FE0193E0EE0FFF1F9A95E1F7EB5F5D
:102D0000FE4F81819281845B9D4F208130E042178C
:102D1000530708F49A01A9010E94ED33CE010E94E5
:102D20007831D82E8823D1F001151105B9F083E050
:102D3000CC0FDD1F8A95E1F7FE01EB5FFE4F43816B
:102D400050E00417150708F4A801CB5FDE4F6C8133
:102D50007D81645B7D4FC7010E94ED338D2DCDB722
:102D6000DEB7E7E00C942A32A5E0B0E0EAEBF6E14A
:102D70000C940B328D838091B9028A3028F080E068
:102D80002596EAE00C9427328D818930C4F36801DE
:102D9000F22E5A01E62E1A8219828A836B832C83C3
:102DA00063E070E0CE0102960E94BF068983E09244
:102DB0003501F092480110E000E030E020E044E00E
:102DC00050E0BE016F5F7F4F85E00E946C16882344
:102DD000B1F24E2D50E030E020E0B50186E00E94D7
:102DE0006C16882361F230E020E041E050E0BE0143
:102DF0006B5F7F4F87E00E946C16882309F4BFCF7A
:102E00000F2D10E0960150E040E070E060E088E0B7
:102E10000E946C16B5CFA4E0B0E0E1E1F7E10C94BC
:102E200011324091AD025091AE026091AF027091AB
:102E3000B0022FB7F8948091BC049091BD04A0918A
:102E4000BE04B091BF042FBF841B950BA60BB70B1C
:102E500011E084369105A105B10518F10E94E20A3E
:102E60006E5F7F4F8F4F9F4F69837A838B839C83E5
:102E700010E000E030E020E044E050E0BE016F5F91
:102E80007F4F82E00E946C16182F882351F00E9419
:102E9000A2066093AD027093AE028093AF0290934E
:102EA000B002812F2496E4E00C942D32A5E0B0E02E
:102EB000ECE5F7E10C940F327B0101E010E09E019C
:102EC0002B5F3F4F50E040E070E060E080E00E9408
:102ED0006C16182F882309F456C04091A90250910E
:102EE000AA026091AB027091AC022FB7F894809166
:102EF000BC049091BD04A091BE04B091BF042FBF4B
:102F0000841B950BA60BB70B84369105A105B10563
:102F100048F464E070E08DE492E00E94BF069D8179
:102F2000891789F104E010E09E012F5F3F4F50E0C8
:102F300040E070E060E081E00E946C16082F64E0E1
:102F400070E08DE492E00E94BF0611E09D8198132D
:102F500010E0102331F10E94A2066093A902709341
:102F6000AA028093AB029093AC0289819A81AB81D3
:102F7000BC818093A5029093A602A093A702B09370
:102F8000A80211E00EC080914D0290914E02A091D6
:102F90004F02B091500289839A83AB83BC83111195
:102FA000E4CF8091A5029091A602A091A702B091D2
:102FB000A802F70180839183A283B383812F259692
:102FC000E6E00C942B328F929F92AF92BF92CF92F9
:102FD000DF92EF92FF920F931F93CF93FB018080BC
:102FE0009180A280B3809FB7F894C090BC04D09029
:102FF000BD04E090BE04F090BF049FBFC818D9087C
:10300000EA08FB0894E6C916D104E104F10418F4B7
:10301000C1E0442399F0A801B9017F0110E000E06C
:1030200030E020E00E946C16C82F882339F00E94FF
:10303000A206F70160837183828393838C2FCF91E3
:103040001F910F91FF90EF90DF90CF90BF90AF90C6
:103050009F908F900895A1E0B0E0E1E3F8E10C9437
:1030600011328091B50489832091600290E041E0A3
:103070002817190609F440E001E010E09E012F5FD7
:103080003F4F65EB72E084E00E94E3172196E4E095
:103090000C942D32ABE0B0E0E0E5F8E10C94113295
:1030A00088E0E6E8F4E0DE01119601900D928A9541
:1030B000E1F78091000390910103A09102038987B9
:1030C0009A87AB8741E08B85811101C040E00BE01E
:1030D00010E09E012F5F3F4F61EB72E083E00E94A2
:1030E000E3178111109202032B96E4E00C942D3229
:1030F00028E030E043E060E086E30E940C2E089573
:10310000CF93DF93D82FC62F0E9478188D2F806819
:103110000E94852E8C2F0E94852E8AEB8A95F1F7CE
:1031200000C00E94B52E83E492E00197F1F700C041
:103130000000DF91CF910895682F893708F068E784
:103140006093A50191E09093A60190919A01992333
:1031500039F06150811101C064E08FE00E94801855
:103160000895FB0180810E949C1808959091A5010B
:10317000911101C095E0282F880F330BA901490F49
:10318000511DCA011816190614F081E090E00E9442
:103190009C180895ACE0B0E0E0EDF8E10C940D323D
:1031A0004F83588769877A878B879C8780919A019C
:1031B000882309F446C080911702811107C060E09E
:1031C00080E50E94801881E0809317020E947818A1
:1031D00080E50E94852E8AEB8A95F1F700C00E9457
:1031E0009D2E0E949D2E0E949D2E7C010E949D2E50
:1031F00020E0E22AF82A0E949D2E8C010E949D2E3A
:1032000020E0022B182B0E94B52E85E08A95F1F75D
:103210000000F894B70180919D0190919E010E9459
:103220001C0E90939E0180939D01B80180919F0197
:103230009091A0010E941C0E9093A00180939F0189
:10324000789480911205882309F467C00E94A20631
:10325000009118021091190220911A0230911B025C
:103260006B017C01C01AD10AE20AF30A97018601B8
:10327000083011052105310508F44FC0609318028C
:103280007093190280931A0290931B020091A80177
:103290001091A9012091AA013091AB01601B710B23
:1032A000820B930B623371058105910580F41092B6
:1032B0009E0110929D011092A00110929F01109208
:1032C000A2011092A1011092A4011092A3011091E9
:1032D00013058091A701412FBE01695F7F4F8823AD
:1032E00089F18DE991E00E944E0D41E041279091D6
:1032F000A70180919A01BE01695F7F4F981739F14C
:1033000081EA91E00E944E0D86E0FE013796A2EB25
:10331000B1E001900D928A95E1F786E0FE013796C3
:10332000DE01119601900D928A95E1F729813A818B
:103330004B815C816D817E8180E090E02C96E8E09D
:103340000C9429328DE991E00E94BB0DCECF81EA29
:1033500091E00E94BB0DD8CFCF93C82F0E94781860
:103360008C2F0E94852E8FE792E00197F1F700C025
:1033700000000E949D2EC82F95E09A95F1F700005D
:103380000E94B52E85E68A95F1F70000109217028B
:103390008C2FCF910895CF93DF930E94042E269A0D
:1033A0000E9478186AE58AE30E9480182FEF80E770
:1033B00092E0215080409040E1F700C0000082E0A0
:1033C0000E94AC1983E00E94AC1984E00E94AC1901
:1033D00085E00E94AC1986E00E94AC1960E080E1B3
:1033E0000E94801880E00E94AC19D82F81E00E94D2
:1033F000AC19C82F0E94B52ED23419F481E0C13027
:1034000009F080E0817080939A01882321F064E0C4
:103410008FE00E948018DF91CF9108951F920F9244
:103420000FB60F9211242F933F934F935F936F9397
:103430007F938F939F93AF93BF93CF93EF93FF931C
:10344000C091E900CF708091EC001092E90080916A
:10345000F000877F8093F00078940E94D20F109242
:10346000E9008091F00088608093F000C093E9004B
:10347000FF91EF91CF91BF91AF919F918F917F91EC
:103480006F915F914F913F912F910F900FBE0F90D1
:103490001F9018951F920F920FB60F9211242F9321
:1034A0003F934F935F936F937F938F939F93AF93CC
:1034B000BF93EF93FF938091E10082FF09C0809159
:1034C000E20082FF05C08091E1008B7F8093E100E4
:1034D0008091DA0080FF24C08091D80080FF20C056
:1034E0008091DA008E7F8093DA008091D90080FF8E
:1034F0009BC080E189BD82E189BD09B400FEFDCF9A
:1035000081E08093CE048091C004811109C00E94A3
:1035100043050E94E2058091E20084608093E2000E
:103520008091E10080FF17C08091E20080FF13C00E
:103530008091E2008E7F8093E2008091E2008061C2
:103540008093E2008091D80080628093D80019BCFB
:1035500085E08093CE048091E10084FF29C08091B2
:10356000E20084FF25C080E189BD82E189BD09B404
:1035700000FEFDCF8091D8008F7D8093D800809190
:10358000E1008F7E8093E1008091E2008F7E809346
:10359000E2008091E20081608093E2008091CF049C
:1035A000882309F447C084E08093CE048091CE0440
:1035B0008091E10083FF27C08091E20083FF23C058
:1035C0008091E100877F8093E10082E08093CE04C8
:1035D0001092CF048091E1008E7F8093E100809172
:1035E000E2008E7F8093E2008091E2008061809310
:1035F000E20042E060E080E00E94B0058091F000CF
:1036000088608093F000FF91EF91BF91AF919F91FF
:103610008F917F916F915F914F913F912F910F907B
:103620000FBE0F901F90189519BC1092CE041092E7
:10363000C00476CF8091E30087FD02C081E0B4CF63
:1036400083E0B2CF78941F920F920FB60F9211249D
:103650008F939F93AF93BF938091BC049091BD04CF
:10366000A091BE04B091BF040196A11DB11D80932D
:10367000BC049093BD04A093BE04B093BF04BF915B
:10368000AF919F918F910F900FBE0F901F90189543
:103690009C014FB7F8948091BC049091BD04A09117
:1036A000BE04B091BF044FBF821B930B08952FB788
:1036B000F8948091BC049091BD04A091BE04B09197
:1036C000BF042FBF0895B0E0A0E0E9E6FBE10C9451
:1036D00007328091B804882309F4D7C18091B604D9
:1036E0009091B7040E94481BC29708F4D6C00E946C
:1036F000571B9093B7048093B60487E195E09093AD
:103700001E0780931D0780911205C0E8882309F4E5
:10371000FCC087EA94E00E944C0F88EB0E94C50E23
:103720008091B1010E94EA0D0E94C50E89EB0E94B2
:10373000C50E8091B0010E94EA0D0E94C50E84EA78
:1037400094E00E944C0F8091AE019091AF0124E073
:10375000969587952A95E1F70E94EA0D0E94C50E7D
:103760008091AE010E94EA0D0E94C50E81EA94E0AC
:103770000E944C0F88EB91E00E94261386EC94E0A7
:103780000E944C0F8091B4010E94F10D0E942613FB
:103790008091B5010E94F10D0E9426138091B7011E
:1037A0000E94F10D0E9426138091B6010E94F10D36
:1037B0000E9426138EEB94E00E944C0F8091A5018D
:1037C000811101C085E00E94F10D01960E9426132F
:1037D0008AEB94E00E944C0F8091AD01882331F078
:1037E000813009F487C081EB94E002C087EB94E05C
:1037F0000E944C0F8091A701882309F47EC08FECB2
:1038000094E00E944C0F8DEA94E00E944C0F80914E
:10381000AC01811101C084E0805D0E94C50E85ED80
:1038200094E00E944C0FC1E0D0E080918E04882388
:1038300009F466C090E00C2E02C0959587950A9415
:10384000E2F780FF5DC08C2F0E94EA0D0E94C50E3A
:103850002196C830D10549F780E20E94C50E82ED5D
:1038600094E00E944C0F80917D01882309F44AC0A6
:103870008FEC94E00E944C0F80917F019091800129
:103880006AE070E00E94EF31862F0E94F10D0196F0
:103890000E94261380E30E94C50E80911505909129
:1038A0001605892B09F4D8C08091B804882309F43F
:1038B000D3C08091B0048111CFC00E9431142091F7
:1038C0001505309116052115310509F4C5C080E0B4
:1038D00041E050E0082F10E03A01082E02C0660CCB
:1038E000771C0A94E2F7B30162237323672B01F577
:1038F0008F5FF0CF84EB94E07BCF8CEC94E081CFB2
:1039000080EBA4CF8CEC94E0B5CF8BED94E00E94DB
:103910004C0FD0E1DC0F8C2FCF5F0E94C50E8C2F97
:10392000CD13FACF80E00E945A0FC03B71F7B5CF9C
:103930009091AF0490FFAEC0880F880F880F8093DE
:103940008F0110929201895F8093900183E08093B0
:10395000930124E630E047E050E06DE871E088E74D
:103960000E945E2F892B09F077C0A80185E0440FE3
:10397000551F8A95E1F78091AF0480FF9DC0EFE865
:10398000F4E080E2DF011D928A95E9F7A3E0B2E05E
:103990000FEF11E0882483942D91E80169918E0145
:1039A000640F752F711D695E7A4F30E021573B4FD0
:1039B000F90197E07F01E21AF30A982C01C0990CF3
:1039C000EA94EAF77B01B12CE70189917E01892114
:1039D000A92EAB18DA2DD770CD2E0D2E000CDD08D8
:1039E000C82F01C0CC0FDA95EAF7AC2ED194C19460
:1039F000D108D7E0CD22DD240C2C01C086950A9495
:103A0000EAF7DC2ED82A80818D298083B39488E060
:103A1000B812DACF915031969F3F61F6C2E0A730DD
:103A2000BC0709F0B9CF04E610E020E230E04FE82F
:103A300054E060E488E70E94E82F892B69F4E301F1
:103A4000C095D0958091150590911605C823D9236E
:103A5000D0931605C09315058091B5048823A9F06D
:103A60000E94A2060091B1041091B2042091B30407
:103A70003091B404601B710B820B930B6F3F7F4F2F
:103A80008F4F9F4710F40E941614CDB7DEB7EEE0BB
:103A90000C9423328295880F807680938F01980151
:103AA000369527953695279520939201815E8093D0
:103AB0009001209393014DCF495E5A4F04E610E0E8
:103AC00020E230E0B6CFA6E3B0E0E9E6FDE10C94F9
:103AD00012324091F3025091F4026091F50270911C
:103AE000F6028091F7029091F8020E94CA18209382
:103AF000F3023093F4024093F5025093F602609380
:103B0000F7027093F80286E0E3EFF2E0DE015996E7
:103B100001900D928A95E1F786E0FE017996DE012B
:103B20001D9601900D928A95E1F786E0FE013D9683
:103B3000DE01539601900D928A95E1F786E0FE0131
:103B40007396A3EFB2E001900D928A95E1F786E0BB
:103B5000E3EFF2E0DE019B9601900D928A95E1F78A
:103B600086E0FE01BB96DE01179601900D928A95C4
:103B7000E1F786E0FE013796DE01119601900D9285
:103B80008A95E1F786E0FE013196DE015F960190AD
:103B90000D928A95E1F786E0FE017F96DE0195960B
:103BA00001900D928A95E1F786E0FE01B596A3EFAC
:103BB000B2E001900D928A95E1F786E0E3EFF2E042
:103BC000DE01D19601900D928A95E1F780917D01F9
:103BD000882309F48FC080918201909183010E9413
:103BE000481B209181012817190608F083C0809195
:103BF0008401909185010E94481B893C910508F43D
:103C000079C0EAA94CA98DA92EA9609189019BA927
:103C1000690F6093890190918A01490F40938A014D
:103C200090918C01290F20938C0190918B01890F29
:103C300080938B01062E000C770B77FF03C07195E4
:103C4000619571096B3071050CF048C0042E000CB1
:103C5000550B57FF03C05195419551094B30510504
:103C6000ECF5022E000C330B37FF03C03195219584
:103C700031092B30310594F5082E000C990B97FF74
:103C800003C09195819591090B9744F581E0E1116D
:103C900001C080E08170809386010E94680A1091C3
:103CA0008E048823A1F11092890110928A0110924A
:103CB0008B0110928C010E94571B9093830180937B
:103CC0008201109285011092840180917E01111170
:103CD00007C0882379F00E94420D0CC081E0DACF42
:103CE000212F30E0082E02C0359527950A94E2F77F
:103CF00020FFF1CF0E94550E811137C08091F20252
:103D00001092F2028170E696E3E00C942E3220913C
:103D10007E01111120C02111EDCF8091820190917F
:103D200083010E94481B20917F0130918001281758
:103D3000390700F780917E010E941E0D10928301C9
:103D4000109282011092890110928A0110928B01C7
:103D500010928C01CFCF812F90E002C0959587956E
:103D60002A95E2F780FFC6CFD8CF81E090E0C8CF98
:103D700080911205882319F00E94571B08950E9414
:103D8000E20ACB010895609186046695669570E01D
:103D90004BE050E08FE691E00E94D333892B19F479
:103DA00081E0809301030E94B81E9093FB028093F0
:103DB000FA02809102038460809302030895909137
:103DC000860490FF3AC09370811138C0946090933C
:103DD000860480910203816080930203662391F040
:103DE0002091860430918704409188045091890481
:103DF00060918A0470918B0480918C0490918D0461
:103E00000E942315609186046695669570E04BE0EC
:103E100050E08FE691E00E94D333892BB9F00E94E5
:103E2000DD0681E08093FD0220E0409189046091ED
:103E30008804809187040E94491508958B3210F000
:103E4000986AC5CF880F880F982BC1CF0E94C31ED8
:103E5000E8CF8091860486958695815009F48AE2A0
:103E600061E00E94DF1E0895809186048695869504
:103E70008F5F8B3208F081E061E00E94DF1E0895C1
:103E80009091860490FF09C096959695981728F012
:103E9000961718F40E94341F089561E00E94DF1EF7
:103EA0000895A3E1B0E0E7E5FFE10C9406328E014E
:103EB000045F1F4F88E0D8011D928A95E9F782ECD4
:103EC000E82E81E0F82E680196EC692E91E0792EBB
:103ED000AA24A394B12C3CEC832E31E0932EF7015D
:103EE00081917F018F3F09F440C0F894E82FE2955B
:103EF000EF70F0E021A18F70A50102C0440F551FA3
:103F00008A95E2F7CA01922F982B91A392A18095EE
:103F1000892382A3789400C0E6ECF1E0512C31E0D3
:103F200021912F3F09F4A0C0A22FA295AF70B0E05D
:103F300090968C9190E02F7002C0959587952A9568
:103F4000E2F780FD91C0832F582A330F8E169F060B
:103F500039F7F701319780818F3F11F00E94CB0A2A
:103F600050EA5A95F1F7D6015C92BFEFCB1ADB0A03
:103F70006E147F0409F0B3CF48E050E0B8018EEB37
:103F800092E00E94E033009741F028E0F801AEEBA8
:103F9000B2E001900D922A95E1F70091C70210E07E
:103FA00004531D4F892B09F461C081E080934402C2
:103FB0000E94571B9093430280934202F12CE090A1
:103FC0001205EE2009F4AEC019821A821B821C82EF
:103FD0008091B9028A3008F06DC046E557E1BE0114
:103FE0006F5F7F4FC8010E94BE13882309F487C00A
:103FF0004BE057E1BE016F5F7F4FC8010E94BE13C7
:10400000882309F47CC04AE458E1BE016F5F7F4F0A
:10401000C8010E94BE13882309F471C04BE258E125
:10402000BE016F5F7F4FC8010E94BE13882309F451
:1040300066C01092B9028091C60290E044E050E060
:10404000BE016F5F7F4F84539D4F0E94E03321E09C
:1040500020934B02892B09F044C0E12C8E2D8F292F
:104060006396EFE00C94223280E06ECFF090440231
:10407000FF2009F4A3CF80914202909143020E9455
:10408000481B059708F49ACF44E050E06EEB72E0CD
:10409000C8010E94E033892B59F084E0EEEBF2E096
:1040A000D80101900D928A95E1F71092440287CFD2
:1040B000F12CFBCF80914502909146020E94481B53
:1040C000843F914008F089CF80914B02882329F2E8
:1040D00084E0FE013196DF011D928A95E9F7109286
:1040E0004B02E091C602F0E0E453FD4F89819A81D2
:1040F000AB81BC8180839183A283B383AFCF809156
:10410000B9028F3F19F08F5F8093B9028091B90295
:104110008A3008F490CF0E94571B909346028093F8
:104120004502D2CF84E0F801ADE4B2E001900D92F7
:104130008A95E1F764E070E08DE492E00E94BF06AA
:1041400080934C028090510290905202A0905302B2
:10415000B09054028091470290914802A091490288
:10416000B0914A0288169906AA06BB06B1F0809261
:10417000470290924802A0924902B0924A020E94DD
:10418000A206861A970AA80AB90A8092BA029092E1
:10419000BB02A092BC02B092BD028BE0E5E5F2E06A
:1041A000DE01119601900D928A95E1F780915502FA
:1041B00086958695D0905602C0905702B0905802CE
:1041C00000915E0210915F0210925F02112301F1D3
:1041D00010FF0BC029819091860420FF20C09160C0
:1041E0009093860460E00E94DF1E11FF06C020E06D
:1041F0004B2D6C2D8D2D0E94491512FF04C00023FC
:10420000E1F00E94C31E13FF03C081E08093FD0212
:10421000809160028823A1F00E9431141FCF892F62
:104220008E7F809386040E94DD0680910203816068
:10423000809302030E94E406D8CF0E94DD06E3CFFC
:104240000E9416140BCFB0E0A0E0E9E2F1E20C947A
:104250000C32FC018481882309F4B0C18F0121E074
:10426000408151816281738195810E94D60CEC015D
:1042700080917D01882309F46BC0D8011596FC90CC
:10428000C032B2E5DB0708F04FC0C115E2E5DE073A
:1042900008F0DFC0C115F0E4DF07C8F5C11520E262
:1042A000D20708F002C1C03ED10548F0C83ED10592
:1042B00008F449C0C11581E0D80708F044C0F801EE
:1042C0008481882309F43FC0C730FEE7DF0709F483
:1042D000D7C0CE018D5C9109439708F4D1C00E94EC
:1042E000680A811130C0FF2059F080917E01209131
:1042F0008E042111E1C0882309F4E7C00E942F0E2B
:104300000E94571B90938501809384011CC0C115A6
:1043100090E5D90708F0B8C0F8018681807F09F0E0
:10432000C4C08D2F9927B6C0C038A2E5DA0708F0BF
:1043300068C0C036B2E5DB0708F08BC0C034E2E5E8
:10434000DE0708F494C08091880187FD10928801EF
:10435000D093AF01C093AE01D8018D919C9111977C
:104360009093B1018093B001FE013497E533F105DC
:10437000A8F4E455FF4FE49115968C9120EB882327
:1043800011F02E2FE0EBA8EBB1E090E080E03D9142
:104390003E139EC086569E4FFC01268FCE019A95F5
:1043A00081159F4108F09AC0FE01FF27D80115969C
:1043B0008C91E13DF10548F0E93DF10508F490C02C
:1043C000E730BEE7FB0709F4B7C0882309F48CC0C7
:1043D000FE57E031F10508F087C0EF50FE4D0C9418
:1043E00088339F22AC22E322E722E922EB22ED224E
:1043F0007422F422032313231A2327230E230A23D0
:104400001123C03CF2E5DF0708F49DCFC03E22E552
:10441000D20708F054CF20917E01CE018F719927E9
:104420002817190609F08FCF8F2D0E94510AD80145
:1044300016968C911697807F803509F084CF15965B
:104440008C91882361F1809188018150809388014B
:104450007ACF20917E01CE018F71992728171906F6
:1044600009F071CFF1106FCF0E945F0A6CCF2091DD
:104470007E01CE018F7199272817190609F063CFA5
:104480008F2D0E94510A5FCFCE0145E0969587950A
:104490004A95E1F78F70992720917E01EDCF0E9418
:1044A0005F0A809188018F5FD1CFD80116968C91D9
:1044B000807F09F448CF03CF30E0082E02C0359545
:1044C00027950A94E2F720FF19CF0E941E0D16CF00
:1044D00001968630910509F05ACF60CFFE0166CF74
:1044E000682F8E2F0E94AE0ED80115968C918111E7
:1044F00039C18091C1048272FE01E052F847E53172
:10450000F10508F03FC1E957FD4D0C948833332382
:104510005E2365236A236F23742379237E238323F9
:1045200088238D23922395239A239D23A023A323BD
:10453000A623A923AC23AF230E94FB0CD5CF80E098
:104540000E949C181092AC0180E00E944C0E8AE8F8
:1045500092E00E943E0E22C04091A5012091AC0144
:1045600020FB47F92695237080917D0180FB22F97D
:1045700080917F019091800162E370E00E94EF31B1
:104580005FEF560F550F550F550F522B6091AD0130
:10459000637070E08FE090E00E94D5328091F90264
:1045A000877061F0D80115968C91882339F080913D
:1045B000CA0282FF03C082E00E942B0DCDB7DEB796
:1045C000E9E00C94283281E00E94B618E7CF8FEF23
:1045D000FBCF8AE0F9CF86EFF7CF9091A70181E07A
:1045E00089270E94FB0CDACF8091AC01811101C0B8
:1045F00084E08F5F18160CF081E0883008F087E0C7
:104600008093AC01CBCF8091AC01811101C084E0DB
:104610008150F0CF81E08093AD01C0CF1092AD0109
:10462000BDCF82E0F8CF90917D0181E089270E9483
:104630004C0EB4CF80917F0190918001C296893E4B
:10464000E3E09E0708F485CF88EE93E082CF809167
:104650007F0190918001C2978436910508F079CF4F
:1046600084E690E076CF8091860480FF1EC0282FDC
:104670002E7F2093860430918704409188045091C6
:10468000890460918A0470918B0480918C049091CC
:104690008D040E9423150E94DD0680910203816033
:1046A000809302030E94E40679CF816080938604A0
:1046B00061E0869586950E94DF1E70CF49E25FE13A
:1046C00064E37FE10E94D70669CF44E35FE169E2DA
:1046D0007FE1F8CF4DE056E167E176E1F3CF47E1C6
:1046E00056E16DE076E1EECF43EF55E160E076E133
:1046F000E9CF40E056E163EF75E1E4CF49ED55E1E4
:1047000066EE75E1DFCF46EE55E169ED75E1DACF92
:1047100041E256E16BE376E1D5CF4BE356E161E24E
:1047200076E1D0CF61E081E0C6CF65E082E00E9413
:10473000401F34CF68E086E0FACF6EE089E0F7CF23
:1047400064E18FE0F4CF67E185E1F1CF61E088E1DA
:10475000B2CF62E289E1EBCF61E083E2ACCF6AE203
:1047600085E2E5CFC330BCE7DB0709F496C008F06B
:1047700067C0C115FCE7DF0709F471C0C130DC4731
:1047800009F491C0F8018581C081D181882309F4A1
:1047900098C0CE010E94F70BF82E682FCE010E9420
:1047A000670CBE018F2D0E94FC0A0E941A0BD82FA5
:1047B000C92FB82ED8011596DC9015971696CC9077
:1047C000C2942FE0C2228091F902877009F1ED2C8A
:1047D000DD20F9F0892F807F803469F080E28D0F31
:1047E0008830B0F0892F807E803229F4B1E0BD1787
:1047F00078F4CC2069F08091CA0282FF09C082E07F
:104800000E942B0D8091F9028770EE24E3948111B0
:10481000E12CEC2FE295EF70EC3008F0BEC0F0E038
:10482000EC5EFB4D0C948833662466249F249F2401
:10483000CD244425CD24CD244925B325C425C42524
:10484000CB358CE7D80709F43AC0CC359CE7D907BB
:1048500061F1CA35DC4709F095CF81E02DC0109297
:10486000C1040E94C60FBFEFE4E3FCE0B150E0409A
:10487000F040E1F700C0000087E797E79093010858
:104880008093000888E19AE00FB6F894A895809389
:1048900060000FBE90936000FFCF6FEF7FEF90E05E
:1048A00080E00E94E1320E94F1138091CA0282FBF3
:1048B000882780F991E089270E94551663CF80E010
:1048C000FBCFCE010E94330CF82E6BCFEC2FEF7094
:1048D000FE2EC07F19F0F29490EFF9228D2FDD208B
:1048E000B9F0FF2069F090E29D0F983010F0D111DF
:1048F00009C08091C104F82AF092C1040E948C0F73
:104900008D2F43C080913702F82AF0923702F6CFFC
:104910000E94A212FF2009F440C0D05ED83010F0EF
:10492000B11004C08F2D0E94E50B06C0F094809159
:104930003702F822F09237020E948C0F2EC0FC2F13
:10494000FF70FF2EC07FC03219F0F29480EFF82282
:10495000BB2059F021E0B21609F471C0DD2009F442
:104960007DC0CC2009F440C0CBCF8091CA0282FD2B
:1049700037C0DD2069F0FF2039F08091C104F82AAA
:10498000F092C1040E948C0F80E00E94CC1205C0FE
:1049900080E00E94A212F110C5CFEE20B1F080910C
:1049A000F90280FD12C0D80115961C928695869555
:1049B00086950E94420DC8010E9423218091F90230
:1049C0008695869586950E941E0D20E0F80140810F
:1049D000518162817381848195810E94D60CEECDD4
:1049E000DD2099F0C11004C08F2D0E949812D5CF00
:1049F00081E0C812D2CF809136029F2D9823F916FC
:104A000061F2F82AF0923602C8CFC110C6CF8F2DBE
:104A10000E949112909136028F2D892329F08F2DBB
:104A2000809589238093360280911C029F2D9823C4
:104A300009F4B3CFF094F822F0921C02AECFDD203F
:104A400029F095E09C1508F4A8CFCECFA4E0AC15D2
:104A500008F4A3CF8F2D0E9491129FCFCC20D1F3C9
:104A6000D93369F4BFEFE7EEF3E0B150E040F04036
:104A7000E1F700C000008D2F0E94A2128ECF8FE1BF
:104A80009EE40197F1F7F5CF6D2D8D2F0E94AE0EAC
:104A900084CF8C2F837091F5D11025C04D2F429576
:104AA00046954770440F440F8D2F8F70042E01C020
:104AB000880F0A94EAF720E0D4FF07C02FE030E027
:104AC00001C0220F4A95EAF72095C695C695C37096
:104AD000C23079F060F43091C802C13039F0822BD5
:104AE00083230E949E0C0E94AE0657CF832B822BFD
:104AF000F8CF282B8091C8028227F3CF8695DD203E
:104B000011F08C2F8170882371F34D2F42954695BB
:104B10004770440F440F8D2F8F70042E01C0880FF3
:104B20000A94EAF720E0D4FF07C02FE030E001C08C
:104B3000220F4A95EAF72095C695C695C370C230F4
:104B400069F050F430918E04C13029F0822B832318
:104B50000E940F0DC8CF832B822BFACF282B809178
:104B60008E048227F5CFCF70DD2039F08C2F0E9484
:104B7000420D8D2F0E949812B6CF8D2F0E94911258
:104B80008C2F0E941E0DAFCF8D2F92EFB916B9F169
:104B90009B1580F0A0EFBA16E1F0B1EFBB16A1F0C3
:104BA000DD2009F45AC0CC2009F454C08D2F0E9496
:104BB000CC1299CFE3EFBE1649F1F4EFBF12F0CF5C
:104BC0009091CA0292FD2DC08C2F8F71DD20C9F209
:104BD0001AC0DD2079F024E02C1508F484CFCF71C1
:104BE00081E090E001C0880FCA95EAF790918E04A9
:104BF0008927AECF85E08C1508F475CFF0CF8C2FC8
:104C00008F71D110BECF0E94420D6DCF80E0DD20AC
:104C100009F49ECFCF7181E001C0880FCA95EAF7F1
:104C200097CFDD2061F08C2F8F7192FFECCF98E051
:104C3000899F9001112423602093F902E4CF81E041
:104C40000E942B0DA1E0AC1508F04DCF82E00E9430
:104C50002B0D49CF8C2F8F71D6CFCC20A1F089336B
:104C600069F4BFEFE7EEF3E0B150E040F040E1F768
:104C700000C000008D2F0E94A21235CF8FE19EE46C
:104C80000197F1F7F5CF8C2F8F717BCFCF93DF9307
:104C900080913502807F09F04DC0809134028823D5
:104CA00009F448C0E09111055091D804C091300238
:104CB000D0912F02609131027091320247E05E176D
:104CC000C9F18E2F90E0E49FF0011124E752FB4FD1
:104CD0002481222391F1489FF001499FF00D112476
:104CE000DF01A752BB4F11962C9111972C1325C0B1
:104CF0002C912D1322C015962C91159721111DC0B2
:104D000012962D913C91261B370B283C3105A8F4B7
:104D1000809135028F70806180933502E152FB4FA4
:104D200080818F70806180838FE292E00E942321D6
:104D30000E94ED0BDF91CF910895FC013196E77051
:104D4000BECFA4E1B0E0E7EAF6E20C9409328C01B0
:104D500086E0F801DE011F9601900D928A95E1F739
:104D6000F8018481E5809FE2A92E92E0B92E90910E
:104D70003302911128C0882319F1EE20F1F0C80107
:104D80000E94A10CF82E8823C1F087E0F801D5011C
:104D900001900D928A95E1F780913302813031F4D0
:104DA00080912F02909130020E94260C0E9446268C
:104DB0008F2D6496ECE00C942532C8010E942321CB
:104DC000FF24F394F5CFD080C18082809380F0904F
:104DD00034022091310230913202A401421B530B64
:104DE000FF2009F4D8C0483C510508F091C0882341
:104DF000F9F29091300280913502282F207F09F03E
:104E000055C0C91214C090912F02D91210C0E110E0
:104E100047C08F708061809335028FE292E00E94DC
:104E2000232180913502F8018683F12CC1CFE11056
:104E300037C06C2D8D2D0E9424056C2D8D2D0E9468
:104E40002405E82E8111F1CFDF86C88A8F859889E5
:104E50000E94260C292F22952F70243058F49F7021
:104E6000223080F0992391F0F8019681907F71F4BF
:104E7000FE2C9ECF2A50223068F0C8010E942321C8
:104E8000EF2CF6CF992311F0882391F3805E8830C0
:104E9000A0F7EECF803F60F3815F833070F7E8CFFB
:104EA00080913502816080933502BFCFC91207C05F
:104EB00090912F02D91203C0EE2009F48DC0C801D1
:104EC0000E94A10C882309F478CFEE2009F475CF55
:104ED00080913502803288F020912F02309130028B
:104EE000398728879B868A86909133029C871D8606
:104EF0008E87CE0108960E94232187E0F801AFE259
:104F0000B2E001900D928A95E1F70E94462658CFB3
:104F100090913502292F207F51F48FE292E00E9478
:104F2000232187E0F50111928A95E9F77ECF882346
:104F300009F43ECF809130028C1110C080912F0275
:104F4000D8120CC0E1100AC09683C8010E94232128
:104F500087E0F50111928A95E9F72ACFC8010E94EE
:104F6000A10C882309F429CFEE2009F426CF8091E3
:104F70003502803210F220912F02309130023A83B4
:104F800029839C828B82909133029D831E828F8322
:104F9000CE010196B0CF483C5105D0F6882309F4E4
:104FA0000FCFFE2CEE2009F408CF809130028C1137
:104FB00020C080912F02D8121CC08091350280FD44
:104FC0000FC0982F907F61F08683903F31F0982F2B
:104FD000907F905F8F70892B8683C8010E94232168
:104FE00087E0F801AFE2B2E001900D928A95E1F717
:104FF000DFCEC8010E94A10C81117FCF80913502C4
:10500000816080933502C8010E942321D1CEABE19B
:10501000B0E0EDE0F8E20C9411324E8B5F8B688FBC
:10502000798F8A8F9B8F192F9111109237021D8AC9
:1050300086E0FE017696DE011F9601900D928A951C
:10504000E1F70A8D002341F021E04F8558896989F5
:105050007A89C8010E94D60C0B8B1C8B87E0FE015D
:105060003F96DE01189601900D928A95E1F7CE01E8
:1050700008960E94A12681112AC087E0FE01389679
:10508000DE01119601900D928A95E1F78C858823B7
:10509000F1F02091D80430E0C9010196877099277A
:1050A000409111054817190659F197E0929FD001D8
:1050B000939FB00D1124A752BB4FFE013196019072
:1050C0000D929A95E1F78093D8040E94ED0B17E0BA
:1050D000809111059091D804891709F1819FC00131
:1050E000112487529B4F0E94A1268823C1F08091F2
:1050F000110590E001968770992780931105E8CFFC
:105100001092C1040E94C60F1092D804109211058B
:1051100087E0EFE2F2E0DF011D928A95E9F76B96F6
:10512000E4E00C942D32A6E0B0E0E9E9F8E20C945A
:1051300011320E94571B8C018091400290914102D4
:105140008017910781F019821A820E94571B682FDD
:1051500049815A81792F80E090E00E9407281093BE
:105160004102009340022696E4E00C942D321F92F7
:105170000F920FB60F9211248F939F93AF93BF930B
:105180008091BB04811113C08091BC049091BD0437
:10519000A091BE04B091BF044196A11DB11D8093A2
:1051A000BC049093BD04A093BE04B093BF04BF9110
:1051B000AF919F918F910F900FBE0F901F901895F8
:1051C000ACE0B0E0E6EEF8E20C94033285B780681C
:1051D00085BF85B7806885BF84B7877F84BF0FB6DA
:1051E000F894A89580916000886180936000109287
:1051F00060000FBE80E890E00FB6F89480936100E5
:10520000909361000FBE8DE99AE09093090280931C
:1052100008020E9443050E94E2058091E20084603A
:105220008093E20078948091CE04882399F01091C5
:10523000E9001F708091EC0080FDCCC280E0182B4B
:105240001092E9008091E80083FD0E94D20F1F7048
:105250001093E90082E084BD93E095BD9AEF97BD7D
:1052600080936E001092BA021092BB021092BC02A0
:105270001092BD0288EC90E01091E300111F1127FD
:10528000111F61F4AFE3BCE91197F1F700C0000012
:10529000019791F70E9443051092CE0410931205D6
:1052A00025982D9A869A8E98B5E0BA95F1F7000068
:1052B00083B185FB882780F986988E9AE0EAEA9583
:1052C000F1F78093130580930401882309F484C2C5
:1052D0001092950188E180939601809112058111C9
:1052E0000E948C30809104018091040194E081112E
:1052F00090E09093C70284E0891B8093C60284EFFC
:105300000E94CB0A85EF0E94CB0A86EF0E94CB0A4F
:1053100087EF0E94CB0A06EC11E08CECE82E81E0CE
:10532000F82ED8018D918D018F3F11F00E94CB0A8C
:10533000E016F106B1F788E0ECECF2E0DF01C82EF0
:105340001D92CA94E9F7EEEBF2E0DF011D928A9517
:10535000E9F790E080E00E94AD32853E9E4F09F46F
:105360005EC065EE7EEF90E080E00E94E13260E09A
:1053700082E090E00E94C33281E08093C80261E045
:1053800083E090E00E94C33260E074E184E090E04A
:105390000E94E13260E086E090E00E94C33260E06B
:1053A00087E090E00E94C33240E050E0BA0188E01C
:1053B00090E00E94D53260E083E290E00E94C33228
:1053C00060E08CE090E00E94C33260E08DE090E00D
:1053D0000E94C33219821A821B821C821D821E8285
:1053E0001F82188648E050E067E170E0CE01019628
:1053F0000E94B33240E050E0BA018FE190E00E9499
:10540000D53240E050E0BA018FE090E00E94D53202
:1054100040E050E0BA0183E190E00E94D53282E0A2
:1054200090E00E949F328093D40284E090E00E943A
:10543000AD329093CA028093C90283E090E00E944B
:105440009F320E949E0C80918E040E94C30C91E0BA
:10545000833009F090E0892F0E94FB0C80911205A7
:10546000882309F4BDC180E08093AF0480E8809375
:1054700014050E942A2F6BE070E088E792E00E94FA
:1054800009148823E9F18091AF0465E070E081FDA3
:10549000A9C183E792E00E940914882389F16DE095
:1054A00070E081E692E00E940914882349F10E948D
:1054B000A206605A75418F4F9F4F6093B10470935D
:1054C000B2048093B3049093B404E7E1F5E080E084
:1054D00092E0DF019C011D9221503040E1F7F093F2
:1054E0001E07E0931D078FEF9FEF909316058093A3
:1054F000150581E08093B8048093B5041092B00440
:105500008091CB02811185C088E090E00E94A73293
:105510004B015C0183E290E00E949F32282F30E033
:1055200040E050E060E070E080E090E000E20E9447
:105530009D33282939294A295B29209386043093F1
:105540008704409388045093890460938A0470937D
:105550008B0480938C0490938D043091020333600C
:10556000309302032C7F09F042C025E0209386048B
:10557000109287043FEF3093880436E93093890412
:1055800010928A0430E04FEF56E960E00E94231544
:1055900088E090E00E94A7326B017C0183E290E0FA
:1055A0000E949F32282F30E040E050E060E070E041
:1055B00080E090E00E949D33B22FA32FF42FE52FBF
:1055C0005B0197018601BC29A12BFE29E32BB09337
:1055D0008604A0938704F0938804E0938904609381
:1055E0008A04B0928B0480938C0490938D040E9463
:1055F00021070E94DD060E94D5068091860480FF67
:1056000005C060E0869586950E94DF1E81E080934C
:10561000CB0280911205811102C00E948F300E943E
:10562000CB198091120581112EC082E89AE09093E7
:1056300054018093530129E130E030934F012093CE
:105640004E0189E390E0909352018093510149E823
:105650005AE050935C0140935B01309357012093D3
:10566000560190935A018093590141EB58E15093B0
:1056700064014093630130935F0120935E01909336
:1056800062018093610190E080E00E94AD32853E2E
:105690009E4F79F58FE090E00E94A7328B01F82EA3
:1056A000862F8F770E949C18001F0027001F612FF4
:1056B0006370660F602B6093AC0112FB882780F942
:1056C0000E944C0E812F887F09F48FC01695169585
:1056D0001695212F30E02F5F3F4F42E3429FC001DC
:1056E000439F900D11240E943E0E8F2D8370809356
:1056F000AD010E94FD0485E691E09093BA04809389
:10570000B90418E1A12EB12C04ED802E02E0902EF8
:105710008091CE0412E1853009F4A6C00E94511F89
:1057200005ED12E0ACECEA2EA2E0FA2EBCECCB2E9A
:10573000B1E0DB2E9601B701F8019191DB018D916B
:10574000BD01D9014D919D018423B2E0ED3DFB07E0
:1057500009F496C0981789F320901205612CF7017F
:1057600071907F01D6018D916D017822F801319001
:105770008F01371431F1512C442443943724832D65
:105780008421B9F02220A9F059826A820E94571B15
:105790009C838B83F1E0FD8391E0842D872109F4C4
:1057A00090E09E8349815A816B817C818D810E942A
:1057B00007285394440C26E05212E1CFF8013197A8
:1057C0007082639438E06312CACF0E94E20A7724A1
:1057D00073945BC080E833CD88E1809395017BCDE5
:1057E00082E042CE8EE692E056CE8AE892E07BCF0F
:1057F0008091CE04843031F10E9416140E94631D02
:105800001092BB0440E40FB6F894A895A0926000F3
:105810000FBE4093600083B7817F846083BF83B7EE
:10582000816083BF7894889583B78E7F83BF0FB6DE
:10583000F894A89580916000886180936000109230
:1058400060000FBE8091CD04882371F00E94511F2B
:10585000ECECF2E0ACECB1E081919D91892309F090
:10586000BAC18E169F06C1F78091CE04853009F427
:10587000BFCF1092C1040E94C60F0E94AE064ECF49
:1058800098136ACF0E949328712C8091010388237A
:1058900009F465C080910003E0918604E695E695E1
:1058A000E81BE093FC02823009F065C0F0E0EC56A2
:1058B000FD4FE4910E2F10E0FDE3CF2EFAE0DF2E36
:1058C0008091FD02882361F01092FD020E94B81EB3
:1058D0009093FB028093FA021092FF021092FE0254
:1058E0000E94B81EE091FA02F091FB029C012E1B6F
:1058F0003F0B2F3F3F4798F52091DF022223B1F065
:105900001092DF022091DD023091DE02821B930BA8
:105910008F3F9F4758F4205D3A483093DE02209332
:10592000DD0280910203886080930203E090FE0212
:10593000F090FF02E00FF11FF093FB02E093FA02F8
:105940008AEF92E0F60109958091FE029091FF02A4
:10595000892B29F4EF2819F081E08093DF020E945F
:10596000631D882309F473C00E94E20A0E94631B2E
:105970000E94311470C0863059F4F0E0EF56FD4FAC
:10598000E4910E2F10E0EDE2CE2EEAE0DE2E98CF6D
:10599000893061F4E695F0E0E257FD4FE4910E2F77
:1059A00010E078EDC72E79E0D72E8ACF8F3061F4E2
:1059B000E695F0E0E557FD4FE4910E2F10E06DE421
:1059C000C62E69E0D62E7CCF853159F4F0E0E85739
:1059D000FD4FE4910E2F10E058ECC52E58E0D52E67
:1059E0006FCF08E210E02EE3C22E28E0D22E8831DD
:1059F00009F466CF833249F4E6E8F2E005911491A8
:105A000045E0C42E48E0D42E5BCF04EF11E098ECC3
:105A1000C92E97E0D92E843209F452CF853281F411
:105A20008E2F63E00E945A33E92FF0E0ED57FD4FCF
:105A3000E4910E2F10E039E5C32E34E1D32E40CF90
:105A400000ED17E08CE9C82E86E0D82E39CF0E94F1
:105A5000631B71108DCF0E94AE069091E0028917F2
:105A600021F08093E0020E94A20680911205882313
:105A700009F44ECE0E94A2062091E702211146C0F1
:105A80000091E3021091E4022091E5023091E602D8
:105A90006B017C01C01AD10AE20AF30A9701860160
:105AA000043F11402105310588F16093E3027093B2
:105AB000E4028093E5029093E6028091E1029091E6
:105AC000E20201969093E2028093E10219868E0130
:105AD000075F1F4F21E050E040E060E089E00E9456
